:107800000C94343C0C94513C0C94513C0C94513CE1
:107810000C94513C0C94513C0C94513C0C94513CB4
:107820000C94513C0C94513C0C94513C0C94513CA4
:107830000C94513C0C94513C0C94513C0C94513C94
:107840000C94513C0C94513C0C94513C0C94513C84
:107850000C94513C0C94513C0C94513C0C94513C74
:107860000C94513C0C94513C11241FBECFEFD8E036
:10787000DEBFCDBF11E0A0E0B1E0E8EEFFE702C05F
:1078800005900D92A230B107D9F712E0A2E0B1E065
:1078900001C01D92AD30B107E1F70E94343D0C9458
:1078A000F23F0C94003C982F95959595959595955C
:1078B000905D8F708A307CF0282F295A8091C0000B
:1078C00085FFFCCF9093C6008091C00085FFFCCF60
:1078D0002093C6000895282F205DF0CF982F809127
:1078E000C00085FFFCCF9093C6000895EF92FF92F1
:1078F0000F931F932D98EE24FF2487018091C000E1
:1079000087FD17C00894E11CF11C011D111D81E0C9
:10791000E81689E0F8068DE3080780E0180770F3A1
:10792000E0910401F091050109958091C00087FF65
:10793000E9CF2D9A8091C6001F910F91FF90EF9093
:1079400008950E94763C982F8091C00085FFFCCF5F
:107950009093C600913634F490331CF0892F8053F5
:1079600008950895892F875508951F930E94A13C7B
:10797000182F0E94A13C1295107F810F1F9108952E
:10798000882351F0982F91508091C00087FFFCCF41
:107990008091C6009923B9F708951F93182F0E946C
:1079A000763C803249F0809103018F5F8093030120
:1079B0008530C1F01F9108958091C00085FFFCCFF4
:1079C00084E18093C6008091C00085FFFCCF1093B6
:1079D000C6008091C00085FFFCCF80E18093C60087
:1079E0001F910895E0910401F091050109951F91FF
:1079F00008950E94763C803241F0809103018F5FB0
:107A000080930301853081F008958091C00085FF47
:107A1000FCCF84E18093C6008091C00085FFFCCF3D
:107A200080E18093C6000895E0910401F091050182
:107A300009950895882309F483E040E951E02D9ADF
:107A400028EE33E0FA013197F1F721503040D1F7B9
:107A50002D9828EE33E0FA013197F1F721503040AC
:107A6000D1F7815061F708953F924F925F926F92E4
:107A70007F928F929F92AF92BF92CF92DF92EF92BE
:107A8000FF920F931F93CF93DF9394B714BE80910F
:107A900060008861809360001092600091FF7FC158
:107AA00083E38093C40088E18093C10086E08093E3
:107AB000C2005098589A259A83E00E941A3D10E01F
:107AC00034E1F32E2EE1E22E95E9D92E8FE0C82E77
:107AD00000E1B02EAA24A394B1E49B2EA6E58A2E41
:107AE000F2E57F2EE0E26E2E79E4572E63E5462E16
:107AF00050E5352E0E94763C8033B1F1112309F414
:107B0000ADC0813309F44FC0803409F443C08134DF
:107B100009F491C0823499F1853409F480C080352C
:107B200019F1823509F1813509F433C1853509F43C
:107B300020C1863509F4FDC0843609F493C084372A
:107B400009F4E1C1853709F4BCC1863709F481C065
:107B5000809103018F5F80930301853049F011E02C
:107B60000E94763C803351F60E94F93C11E0F8CF38
:107B7000E0910401F0910501099511E0F1CF93E145
:107B80008091C00087FFFCCF8091C600992361F3EC
:107B90009150F6CF0E94763C863830F30E94763CB6
:107BA0000E94F93CE3CF0E94763C803289F68091B6
:107BB000C00085FFFCCFF092C6008091C00085FF19
:107BC000FCCF9092C6008091C00085FFFCCF8092D0
:107BD000C6008091C00085FFFCCF7092C6008091E6
:107BE000C00085FFFCCF6092C6008091C00085FF79
:107BF000FCCF5092C6008091C00085FFFCCF409220
:107C0000C6008091C00085FFFCCF3092C6008091F5
:107C1000C00085FFFCCFB092C60011E0A1CF94E078
:107C20008091C00087FFFCCF8091C600992309F4A2
:107C30009BCF9150F5CF0E94763C803809F494C0D8
:107C4000813809F48CC0823809F49EC0883909F45F
:107C500081C080E00E94CD3C11E082CF88E080931B
:107C60006000FFCF0E94763C809309020E94763C20
:107C70008093080280910C028E7F80930C020E94F8
:107C8000763C853409F40DC1809108029091090277
:107C9000892B89F000E010E00E94763CF801E85F53
:107CA000FE4F80830F5F1F4F809108029091090261
:107CB0000817190788F30E94763C803209F048CFF4
:107CC00080910C0280FF71C0209106013091070164
:107CD000220F331F309307012093060160910802A1
:107CE0007091090261157105C9F0E8E0F1E0A901A0
:107CF000DB01AE0FBF1FF999FECF52BD41BD81918F
:107D000080BDFA9AF99A4F5F5F4FEA17FB0799F720
:107D1000260F371F30930701209306018091C00082
:107D200085FFFCCFF092C6008091C00085FFFCCF9C
:107D300072CF0E94763C803309F4A3C092E0809118
:107D4000C00087FFFCCF8091C600992309F481CF42
:107D50009150F5CF83E00E94CD3C11E001CF81E04E
:107D60000E94CD3C11E0FCCE82E00E94CD3C11E0AF
:107D7000F7CE0E94763C809306010E94763C809369
:107D800007010E94F93CF2CE80E10E94CD3C11E057
:107D9000E7CE0E94F93C88E080936000FFCFE0913D
:107DA0000401F091050109957BCE8091070188239C
:107DB000880F880B8A2180930B0280910601909195
:107DC0000701880F991F9093070180930601809106
:107DD000080280FF09C08091080290910902019673
:107DE0009093090280930802F894F999FECF112725
:107DF000E0910601F0910701C8E0D1E0809108020E
:107E000090910902103091F40091570001700130F7
:107E1000D9F303E000935700E895009157000170F3
:107E20000130D9F301E100935700E89509901990CA
:107E30000091570001700130D9F301E00093570021
:107E4000E8951395103498F01127009157000170B0
:107E50000130D9F305E000935700E89500915700F1
:107E600001700130D9F301E100935700E895329693
:107E7000029709F0C7CF103011F00296E5CF112418
:107E80004DCF0E94763C0E94763C182F0E94763C93
:107E9000112391F0113059F08FE00E94CD3C11E098
:107EA0005FCE80910C02816080930C02EDCE85E95B
:107EB0000E94CD3C11E054CE8EE10E94CD3C11E0F9
:107EC0004FCE0E94763C803209F042CE8091C000B5
:107ED00085FFFCCFF092C6008091C00085FFFCCFEB
:107EE000E092C6008091C00085FFFCCFD092C60012
:107EF0008091C00085FFFCCFC092C6008091C00079
:107F000085FFFCCF88CE0E94763C809309020E94B8
:107F1000763C809308028091060190910701880FBA
:107F2000991F90930701809306010E94763C853447
:107F300009F43EC080910C028E7F80930C020E9457
:107F4000763C803209F00BCE8091C00085FFFCCFDB
:107F5000F092C600A0910802B0910902109709F4AE
:107F60003CC080910C02182F1170082F0270E09114
:107F70000601F09107019F012F5F3F4FB90140E0DB
:107F800050E01123D9F4002339F494918091C0007A
:107F900085FFFCCF9093C6004F5F5F4FCB010196EA
:107FA000F9014A175B07A8F4BC012F5F3F4FE9CFE7
:107FB00080910C02816080930C02C1CFF999FECFB1
:107FC000F2BDE1BDF89A90B58091C00085FFFCCF6D
:107FD000E1CF70930701609306018091C00085FF97
:087FE000FCCF19CEF894FFCF8D
:027FE800800017
:040000030000780081
:00000001FF
